:020000040800F2
:1000000050050020010100082F1C000803170008FC
:100010002D1C00086D010008731E00080000000080
:1000200000000000000000000000000013010008B4
:100030006F0100080000000017010008F31C000811
:100040001B0100081B0100081B0100081B01000820
:100050001B0100081B0100081B0100081B01000810
:100060001B010008710100081B0100081B010008AA
:100070001B0100081B0100081B0100081B010008F0
:100080001B0100081B0100081B0100081B010008E0
:100090001B0100081B0100081B0100081B010008D0
:1000A0001B0100081B0100081B0100081B010008C0
:1000B0001B0100081B0100081B0100081B010008B0
:1000C0001B0100081B0100081B0100081B010008A0
:1000D0001B0100081B0100081B0100081B01000890
:1000E0001B0100081B0100081B010008DFF80CD0F1
:1000F00000F02AF800480047951E0008500500202F
:100100000648804706480047FEE7FEE7FEE7FEE7B1
:10011000FEE7FEE7FEE7FEE7FEE7FEE75D1D0008FF
:10012000ED00000840EA01039B0703D009E008C97D
:10013000121F08C0042AFAD203E011F8013B00F8AC
:10014000013B521EF9D27047064C074D06E0E068AD
:1001500040F0010394E8070098471034AC42F6D30E
:10016000FFF7C8FF801F0008A01F0008FEE7FEE79A
:10017000082000F017B831B500F008F9044600F087
:1001800005F90099001B8842F9D338BD082805D12C
:1001900003498022A1F12C0001F091BB70470000BF
:1001A000D0000020044910B50A68024202D008605D
:1001B000FFF7ECFF10BD0000140401402DE9F84FDB
:1001C000DFF890A100220AF1040B144601274FF03A
:1001D0000F090BF1040E00BF0B6807FA04F52B4062
:1001E000AB4274D1DFF870C14E68A6EB0C086645CF
:1001F0002BD00DDC032E34D005DC36B3012E19D004
:10020000022E2FD11BE0112E16D0122E2AD119E06A
:10021000B8F5881F19D006DCB8F5803F15D0B8F5C1
:10022000801F1FD111E0B8F5001F0ED0B8F5041FD4
:1002300018D10AE0CA6815E0CA68121D12E0CA683F
:1002400008320FE0CA680C320CE08A682AB1012A31
:100250004FF0080203D0456104E0042202E005618A
:1002600000E00022FF2B01D8064601E000F1040661
:100270004FEA840501D9A5F12005D6F800C009FA96
:1002800005F82CEA080C02FA05F54CEA050CC6F84C
:1002900000C04D68ED0057D5304DAE6946F00106FF
:1002A000AE61AD6924F0030605F0010500952C4D03
:1002B00006EB050CDCF80850A6074FEA167809FA99
:1002C00008F6B543274EB04202D1002610E03BE0CD
:1002D000254EB04201D101260AE0244EB04201D1A0
:1002E000022605E0224EB04201D1032600E004269A
:1002F00006FA08F62E43CCF808604D68DAF800607C
:10030000ED03554601D51E4300E09E432E604D6827
:10031000DBF80060AD035D4601D51E4300E09E435F
:100320002E604D68DEF80060ED02754601D51E4373
:1003300000E09E432E604D68AD020E4D2E6801D543
:100340001E4300E09E432E60641C102CFFF444AF5B
:10035000BDE8F88F000401400000111000100240B9
:100360000000014000080140000C01400010014065
:10037000001401400C040140C2684A40C26070474A
:100380000AB1016170470904FBE7000001480068F9
:10039000704700000800002002480168491C016005
:1003A0007047000008000020074810B5016841F0C0
:1003B00010010160032000F07DF8002000F006F835
:1003C00000F016F8002010BD0020024010B50446D1
:1003D00000F0C6F94FF47A71B0FBF1F001F0A9F822
:1003E00000222146501E00F045F8002010BD0000FC
:1003F000184808B5816941F001018161806900F008
:1004000001000090032000F055F8002211466FF023
:100410000B0000F02FF8002211466FF00A0000F0E8
:1004200029F8002211466FF0090000F023F800229D
:100430001146101F00F01EF800221146501E00F059
:1004400019F80548416821F0E06141F00071416010
:1004500008BD0000001002400000014000F01F0233
:10046000012191404009800000F1E020C0F8001116
:1004700070470000F0B40E4B1B680C46C3F3022318
:10048000C3F10705042D00D90425191D072901D240
:10049000002300E0DB1E012606FA05F1491E21407B
:1004A00099409E40761E16403143F0BC01F0C0BB1F
:1004B0000CED00E0064900F0070208684FF6FF0364
:1004C000184040EA0220034A1043086070470000C9
:1004D0000CED00E00000FA052DE9F047DFF8789216
:1004E00005460E46D9F80000022300F00707012058
:1004F00041044206994C41F28838B74271D2D9F88A
:1005000000C02CF0070C4CEA060CC9F800C0D9F862
:10051000007007F00707B7426FD12E78B60705D5F0
:100520006668AF6826F0F0063E4366602E78F607F0
:1005300056D06E68012E0BD0022E1ED093FAA3F176
:10054000B1FA81F141F02001490924D0216823E06A
:1005500091FAA1F2B2FA82F242F02002520901D0DD
:10056000226800E0626A91FAA1F1B1FA81F101F02A
:100570001F018840024240D017E092FAA2F1B1FA7E
:1005800081F141F02001490901D0216800E0616A50
:1005900092FAA2F202E0616A93FAA3F2B2FA82F24C
:1005A00002F01F029040014227D0606820F0030053
:1005B00030436060FFF7EAFE06466868012809D00C
:1005C0000228474613D01EE0FFF7E0FE801BB8422A
:1005D00001D992E047466068C0F381000128F3D159
:1005E000A1E015E0FFF7D2FE801BB84273D8606827
:1005F000C0F381000228F5D195E092E0FFF7C6FE36
:10060000801BB84279D8606810F00C0FF6D18AE0F0
:100610002F78BF0707D56768D5F808C027F0F0071F
:1006200047EA0C0767602F78FF076DD06F68012FCE
:100630000BD0022F1ED093FAA3F1B1FA81F141F051
:100640002001490924D0216823E091FAA1F2B2FAED
:1006500082F242F02002520901D0226800E0626A70
:1006600091FAA1F1B1FA81F101F01F018840024233
:1006700057D017E092FAA2F1B1FA81F141F02001CE
:10068000490901D0216800E0616A92FAA2F202E011
:10069000616A93FAA3F2B2FA82F202F01F0290406A
:1006A00001423ED0606820F0030038436060FFF7ED
:1006B0006DFE07466868012807D0022811D01FE0A8
:1006C000FFF764FEC11B414517D86068C0F3810085
:1006D0000128F5D118E010E0FFF758FEC11B414595
:1006E0000BD86068C0F381000228F5D10CE000BF90
:1006F000FFF74CFEC11B414502D90320BDE8F0873E
:10070000606810F00C0FF3D1D9F8001021F0070148
:100710003143C9F80010D9F8000000F00700B042DA
:1007200001D00120EAE72878400705D56068E9682C
:1007300020F4E060084360602878000706D5606810
:10074000296920F4605040EAC10060600020FFF792
:100750003DFE0020D2E700000020024000100240D1
:1007600000B500F017F808494968F02292FAA2F2A1
:1007700001F0F001B2FA82F2D140044A515CC84063
:100780000349086000BD000000100240701F00080F
:100790000000002010B519A385B00FCB8DE80F0025
:1007A0001AA01B4B006804905A681A4802F00C010A
:1007B00004291DD008291BD14FF4701494FAA4F415
:1007C00002F47011B4FA84F4E140D2031DF8011070
:1007D00010D55A684FF4003393FAA3F302F40032B1
:1007E000B3FA83F3DA4004AB9A5CB0FBF2F048430F
:1007F00005B010BD08484843FAE7000002030405AD
:10080000060708090A0B0C0D0E0F1010010200005C
:100810000010024000127A0000093D002DE9F84F57
:1008200005460078FA4EC0074FF0010425D07068E5
:100830006704C0F38100012807D07068C0F381000D
:1008400002281BD17068C00318D597FAA7F0B0FA38
:1008500080F040F02000400901D0306800E0706A6C
:1008600097FAA7F1B1FA81F101F01F0104FA01F141
:10087000084202D06868002876D081E0306820F411
:1008800080303060306820F480203060FFF77EFDDB
:10089000804605E0FFF77AFDA0EB080064287CD8CD
:1008A00097FAA7F0B0FA80F040F02000400901D09C
:1008B000306800E0706A97FAA7F1B1FA81F101F0AF
:1008C0001F0104FA01F10842E4D16868B0F5803FE5
:1008D0000BD010B1B0F5A02F11D0306820F48030CB
:1008E0003060306820F4802002E0306840F48030CE
:1008F0003060686820B3FFF749FD80460AE0306841
:1009000040F480203060F0E7FFF740FDA0EB0800E6
:100910006428C4D897FAA7F0B0FA80F040F020001D
:10092000400901D0306800E0706A97FAA7F1B1FA87
:1009300081F101F01F0104FA01F10842E4D01FE047
:10094000FFF724FD804605E0FFF720FDA0EB08003F
:100950006428A4D897FAA7F0B0FA80F040F02000FD
:10096000400902D0306801E0B7E0706A97FAA7F159
:10097000B1FA81F101F01F0104FA01F10842E3D15B
:100980002878DFF8908280074FF000094FF00207C7
:100990005AD5706810F00C0F00E07AE14FF0F80BB8
:1009A00007D07068C0F3810002281BD17068C003B3
:1009B00018D497FAA7F0B0FA80F040F02000400970
:1009C00001D0306800E0706A97FAA7F1B1FA81F1BE
:1009D00001F01F0104FA01F108422AD02869012818
:1009E0007BD126E0286980B394FAA4F0B0FA80F0B5
:1009F00048F82040FFF7CAFC824605E0FFF7C6FC36
:100A0000A0EB0A00022884D897FAA7F0B0FA80F089
:100A100040F02000400901D0306800E0706A97FA89
:100A2000A7F1B1FA81F101F01F0104FA01F10842C6
:100A3000E4D030689BFAABF26969B2FA82F220F036
:100A4000F80091400843306025E0FFE794FAA4F1F4
:100A5000B1FA81F148F82190FFF798FC824605E051
:100A6000FFF794FCA0EB0A000228CCD897FAA7F075
:100A7000B0FA80F040F02000400901D0306800E07A
:100A8000706A97FAA7F1B1FA81F101F01F0104FA37
:100A900001F10842E4D1287800076ED5A869B8B3FF
:100AA00094FAA4F0B0FA80F008EB8000C0F880441B
:100AB000FFF76CFC824605E0FFF768FCA0EB0A003C
:100AC0000228A0D897FAA7F0B0FA80F040F06000B2
:100AD000B4EB501F02D130680CE096E197FAA7F012
:100AE000B0FA80F040F06000B7EB501F01D1306ADF
:100AF00000E0706A97FAA7F1B1FA81F101F01F01E5
:100B000004FA01F21042D7D00120FFF734FB34E0A1
:100B1000FFE794FAA4F1B1FA81F108EB8101C1F881
:100B20008094FFF733FC824606E000BFFFF72EFCFF
:100B3000A0EB0A00022898D897FAA7F0B0FA80F044
:100B400040F06000B4EB501F01D130680BE097FA21
:100B5000A7F0B0FA80F040F06000B7EB501F01D171
:100B6000306A00E0706A97FAA7F1B1FA81F101F0FA
:100B70001F0104FA01F21042D8D12878400770D53D
:100B8000F06940F08050F061F069DFF88CB000F05F
:100B900080500090DBF8001041F48071CBF8001019
:100BA000FFF7F4FB824605E0FFF7F0FBA0EB0A003D
:100BB00064286ED8DBF80000C005F5D5306A20F057
:100BC00001003062306A20F004003062FFF7DEFB83
:100BD000834641F2883A05E0FFF7D8FBA0EB0B0112
:100BE000514556D897FAA7F0B0FA80F040F040008F
:100BF000B4EB501F01D1306811E097FAA7F0B0FABA
:100C000080F040F04000B7EB501F07D1306A06E09B
:100C1000001002400000424200700040706A97FAE3
:100C2000A7F1B1FA81F101F01F0104FA01F10842C4
:100C3000D2D1E86801280AD008B1052812D0306A5C
:100C400020F001003062306A20F0040002E0306AD7
:100C500040F001003062E86898B3FFF797FB8346E5
:100C60000CE05AE0306A40F004003062EFE700BF69
:100C7000FFF78CFBA0EB0B0151450AD897FAA7F0C0
:100C8000B0FA80F040F04000B4EB501F02D1306861
:100C90000CE09DE097FAA7F0B0FA80F040F0400039
:100CA000B7EB501F01D1306A00E0706A97FAA7F1E4
:100CB000B1FA81F101F01F0204FA02F10842D7D023
:100CC0002BE0FFE7FFF762FB834605E0FFF75EFBE3
:100CD000A0EB0B0151457BD897FAA7F0B0FA80F052
:100CE00040F04000B4EB501F01D130680BE097FAA0
:100CF000A7F0B0FA80F040F04000B7EB501F01D1F0
:100D0000306A00E0706A97FAA7F1B1FA81F101F058
:100D10001F0204FA02F10842D8D1E86980B3716871
:100D2000C1F38101022970D04FF080714F00022879
:100D3000484609D091FAA1F1B1FA81F148F82100B1
:100D4000FFF724FB054669E0894691FAA1F1B1FA63
:100D500081F1C24648F82100FFF718FB804605E004
:100D6000FFF714FBA0EB0800022854D897FAA7F06D
:100D7000B0FA80F040F02000400902D0306801E075
:100D800061E0706A97FAA7F1B1FA81F101F01F01F1
:100D900004FA01F10842E3D1286AB0F5803F05D199
:100DA0007068A96820F4003008437060D5E9080134
:100DB0000843716821F474110843706099FAA9F02E
:100DC000B0FA80F04AF82040FFF7E0FA054606E066
:100DD00021E000BFFFF7DAFA401B02281BD897FA80
:100DE000A7F0B0FA80F040F02000400901D0306850
:100DF00000E0706A97FAA7F1B1FA81F101F01F01E2
:100E000004FA01F10842E5D01DE01EE0FFF7BEFA4A
:100E1000401B022802D90320BDE8F88F97FAA7F0FB
:100E2000B0FA80F040F02000400901D0306800E0C6
:100E3000706A97FAA7F1B1FA81F101F01F0104FA83
:100E400001F10842E2D10020E6E70120E4E790F852
:100E50005100704710B5040003D094F8510010B150
:100E600004E0012010BD204600F038F8022084F88C
:100E700051002068016821F040010160D4E90101BE
:100E80000843D4E903121143084361690843218BE5
:100E900001F400710843E1690843216A0843A16A2B
:100EA000084321680860A069042101EA1040616AD2
:100EB0000843216848602168E06A08612068C169C8
:100EC00021F40061C16104490020087060650120BF
:100ED00084F85100002010BD0C00002010B50068FF
:100EE000114986B088421CD11048816941F4805173
:100EF000816180690E4C00F480500490A020009025
:100F0000022001900320039069462046FFF756F91E
:100F100000214020CDE90001029169462046FFF7FB
:100F20004DF906B010BD0000003001400010024035
:100F3000000801402DE9F84F00259A460446ADF817
:100F4000005090F8510001287ED1E9B3E2B394F843
:100F50005000012878D0012684F85060222084F8BF
:100F600051006565A163A287E287A564E5642563F6
:100F7000A586E586A0684FF40049484504D120685D
:100F8000036823F480430360A06A4FF40057B8421B
:100F900009D12068036823F40053036020680368C4
:100FA00043F40053036060684FF48278404501D1F8
:100FB000A06878B120680168490603D4016841F04F
:100FC00040010160E06800E001E0E8B131E00120AB
:100FD000BDE8F88F84F8505013460A462046CDF8F5
:100FE00000A000F040F9F3E753460022012120461B
:100FF00000F030FE48BB2068C168A06B421CA263B1
:101000000170E08F401EE087E08F0128ECD813E0EC
:10101000534600220121204600F01CFEA8B920689A
:10102000C068A16B0880A06B801CA063E08F401E8D
:10103000E087E08F0128EBD8A06AB84207D120688A
:10104000016841F4805101E068E007E00160534627
:1010500000220121204600F0FDFD08B10320B7E782
:10106000E0680028206817D0C068A16B0880A06BDA
:10107000801CA063E08F401EE087A06AB84217D1B1
:10108000534600220121204600F0E4FD50B1606D7E
:1010900040F002006065E1E7C168A06B421CA263FA
:1010A0000170E7E72068C068ADF80000BDF80000F7
:1010B000606840450AD1A068484502D0B0F5806F0D
:1010C00004D12068016821F04001016084F851607A
:1010D000A06AB8420DD120688068C043C00608D419
:1010E000204600F0B5FD012807D021686FF0100000
:1010F000886084F8505000206AE7606D40F002007C
:1011000060652068016821F4005101602068016871
:1011100041F40051016084F8505058E7022057E72D
:101120002DE9F843044690F851009846012870D103
:1011300039B332B394F8500001286AD0012684F8FC
:101140005060122084F85100002565652163A28655
:10115000E286E564A564A563A587E587A06A7703B1
:10116000B84209D12068016821F40051016020686B
:10117000016841F400510160A068B0F5004F03D050
:1011800007E00120BDE8F8832068016841F4804150
:10119000016020680168490603D4016841F04001FC
:1011A0000160E0680028606804D0D8B1E08E0128B2
:1011B00018D021E010B1E08E012808D1206B411C2D
:1011C000216321680078C860E08E401EE08600043C
:1011D000000C1FD0434600220221204600F03AFDB9
:1011E000A8B9EBE7206B21680088C860206B801CE1
:1011F0002063E08E401EE0860004000C0AD04346C7
:1012000000220221204600F025FD0028EAD003201C
:10121000B8E726E0A06AB84204D12068016841F42A
:1012200080510160434600220221204600F012FD59
:1012300030B9434601228021204600F00BFD20B149
:10124000606D40F010006065E1E7A06818B92068A3
:10125000C1688068009084F8516084F85050002084
:1012600090E702208EE72DE9F8430025DDF8208085
:101270000446ADF8005090F85100012803D094F8CE
:10128000510022287DD169B162B15BB194F8500060
:10129000012876D0012684F8506094F85100012886
:1012A00003D005E00120BDE8F883322084F8510026
:1012B0006565A263A387E3872163A386E386A564AC
:1012C000E564A06A4FF40057B84209D1206801686C
:1012D00021F4005101602068016841F4005101606F
:1012E00020680168490603D4016841F040010160AB
:1012F000E0684FF48271B0F5006F606807D0002895
:1013000067D088426ED1E08E012862D06AE020B1B9
:1013100088420CD1E08E012809D1206B2168008819
:10132000C860206B801C2063E08E401EE086E08E4B
:1013300080B9A06AB84244D12068016841F4805164
:1013400001603EE02068C068A16B0880A06B801C33
:10135000A0639EE0434600220221204600F07AFC72
:10136000002874D1206B21680088C860206B801C25
:101370002063E08E401E0004000CE08609D1A06AC4
:1013800000E0C7E0B84204D12068016841F4805110
:101390000160434600220121204600F05BFC00284A
:1013A0006FD12068C068A16B0880A06B801CA0630F
:1013B000E08F401EE087E08E0028CBD160680028D7
:1013C0006AD1434600220121204600F043FCF0BBD5
:1013D000B8E7206B411C216321680078C860E08E6B
:1013E000401EE086E08E98B9A06AB84204D1206819
:1013F000016841F4805101604346002201212046EA
:1014000000F028FC18BB2068C068A16B087040E0A1
:10141000434600220221204600F01CFCB8B9206B94
:10142000411C216321680078C860E08E401E0004E2
:10143000000CE08607D1A06AB84204D12068016898
:1014400041F48051016000224346012100E018E090
:10145000204600F0FFFBA0B92068C168A06B421CC9
:10146000A2630170E08F401EE087E08E0028CFD19C
:10147000606888B9434600220121204600F0EAFB5B
:1014800008B103200FE72068C168A06B421CA2636B
:101490000170E08F401EE087A06AB84210D1434639
:1014A00000220121204600F0D5FB18B1606D40F00C
:1014B00002000FE02068C068ADF80000BDF8000031
:1014C000434601228021204600F0C4FB20B1606D1C
:1014D00040F010006065D4E784F85160A06AB8421B
:1014E00014D120688168C943C9060FD4616D41F0E9
:1014F00002016165016821F4005101602068016802
:1015000041F40051016084F85050CBE684F850500B
:101510000020C8E60220C6E64FF0E0210428086952
:1015200003D020F004000861704740F00400FAE79F
:10153000704710B5401EB0F1807F01D3012010BD6F
:101540004FF0E02460610F21601700F071FB002074
:10155000A06107202061002010BD10B5FFF7E8FF53
:1015600010BD30B590F83820012A20D0012280F833
:101570003820022380F8393003685C6824F0700456
:101580005C6003685C680D682C435C6003689C6861
:1015900024F080049C6003689C6849680C439C604C
:1015A00080F83920002180F83810084630BD02202C
:1015B00030BD10B5040003D094F8390010B107E035
:1015C000012010BD002084F83800204600F00CF8FF
:1015D000022084F83900211D206800F0E3FB01207F
:1015E00084F83900002010BD08B50068064988421B
:1015F00008D10648816941F400618161806900F485
:101600000060009008BD0000002C01400010024066
:1016100070B5044690F83800012817D0012584F8E9
:101620003850022084F839002068826822F077025E
:1016300022F47F4282600868502837D00DDC2028D1
:1016400059D005DC88B3102841D151E0022070BD8B
:10165000302853D040283AD13FE060282ED070285F
:101660000BD0B0F5805F03D0B0F5005F2FD110E054
:101670002068816821F0070115E0CB68D1E90121DC
:10168000206800F0C1FB2168886840F0770088601E
:101690001DE0CB68D1E90121206800F0B5FB20688E
:1016A000816841F48041816011E01EE0CA684968A8
:1016B000206800F0BBFB5021206806E0CA6849683A
:1016C000206800F0C4FB6021206800F0A7FB84F8CC
:1016D0003950002084F8380070BDCA684968206815
:1016E00000F0A4FB40212068EFE700212068ECE730
:1016F00010212068E9E720212068E6E730212068F2
:10170000E3E7FEE770B50C460546012100F09CF8C2
:10171000024644B1012C0BD0032C0FD0052C13D062
:10172000062C17D01BE0002002F0F802E86116E05A
:10173000012002F0F802521CE86110E0032002F0E0
:10174000F802D21CE8610AE0052002F0F802521DFE
:10175000E86104E0062002F0F802921DE8612846E4
:10176000BDE87040012100F075B970B50446002154
:10177000FFF7C8FF0A20FEF7FEFC0121204600F01B
:1017800063F805460A20FEF7F6FC45F080020121C9
:10179000204600F05FF96420FEF7EDFC2046216A48
:1017A00000F0DFF894F82A10204600F019F994F8B8
:1017B0002B10204600F0F5F823220C21204600F0E3
:1017C00049F9204600F033F994F82410204600F03F
:1017D00011F9FF221F21204600F03CF994F8250062
:1017E00094F82610000100EB4100C2B21D212046F2
:1017F00000F030F9208D2021020A204600F02AF95D
:1018000094F828202121204600F024F94021204688
:1018100000F01AF840F03F024021204600F01AF98B
:1018200001212046FFF76EFF0120E0610A20FEF74C
:10183000A2FC4221204600F007F8122802D04FF403
:10184000CA7070BDC82070BD0EB501F07F018DF863
:10185000081001210A46009101AB02A900F003F82B
:101860009DF804000EBD2DE9F0470E4615460446CE
:1018700081889846DDF8209000680022FEF780FD00
:101880004FF4FA673B462A463146A069FFF748FC09
:10189000A069FFF7DCFA0128FAD13B464A464146E7
:1018A000A069FFF747FBA069FFF7D1FA0128FAD139
:1018B000A1882068BDE8F0470122FEF761BD2DE94F
:1018C000F04100250E46074614462846294601E009
:1018D0003154401CA042FBDB01213846FFF712FFC8
:1018E00012213846FFF7B0FF40061FD5FF22122114
:1018F000384600F0AFF813213846FFF7A5FF05463C
:1019000010213846FFF7A0FF02460D21384600F0AF
:10191000A1F8AC4200D22546002405E0002138465B
:10192000FFF792FF3055641CAC42F7DB05213846C7
:10193000FFF7E8FE2846BDE8F08110B5044681892E
:1019400080680022FEF71CFD0120FEF714FCA1892F
:101950000122A068FEF714FDBDE810406420FEF7E8
:101960000ABC70B50546C8044411C4F307420621F9
:10197000284600F06FF80520FEF7FDFBC4F30722B0
:101980000721284600F066F80520FEF7F4FBE2B2D6
:101990000821284600F05EF8BDE870400520FEF7FB
:1019A000EABB10B52D2901D22D2105E0F02901D97E
:1019B000F02106E0782904D805222D3991FBF2F1B7
:1019C00003E00A221E31B1FBF2F1C9B22031CAB2E2
:1019D0000B2100F03FF8BDE810400A20FEF7CBBB1A
:1019E00010B50A46092100F035F8BDE810400A207C
:1019F000FEF7C1BB70B50C4606460C2901DD0C2470
:101A000002E0072C00DA07241E21FFF71DFF054620
:101A10000A20FEF7B0FB64F31F15EAB21E21304620
:101A200000F018F8BDE870400A20FEF7A4BB10B51E
:101A300004461E21FFF708FF40F007021E21204642
:101A400000F008F8BDE810400A20FEF794BB05211D
:101A5000FFF758BE0EB541F080018DF80810012146
:101A60008DF804200A46009101AB02A900F001F8AC
:101A70000EBD2DE9F0470E4615460446818898466E
:101A8000DDF8209000680022FEF77AFC4FF4FA6738
:101A90003B462A463146A069FFF742FBA069FFF7A3
:101AA000D6F90128FAD13B464A464146A069FFF7DC
:101AB00037FBA069FFF7CBF90128FAD1A18820688C
:101AC000BDE8F0470122FEF75BBC00002DE9F041C4
:101AD000314886B0816941F010018161816901F06E
:101AE00010010491816941F020018161816901F057
:101AF00020010491816941F004018161816901F053
:101B000004010491816941F0080181618069234EDB
:101B100000F008004FF400540490002221463046A3
:101B2000FEF72EFC1E4F002201213846FEF728FC4E
:101B3000DFF87080012203214046FEF721FC00946B
:101B4000012402256946304603950194FEF736FBD1
:101B500000946946384603950194FEF72FFB032055
:101B6000CDE90004694603954046FEF727FB0820AF
:101B700000900D4801900020029069464046FEF713
:101B80001DFB002211460920FEF774FC0920FEF718
:101B900065FC06B0BDE8F081001002400010014075
:101BA00000080140000C0140000011100C480B49D6
:101BB0004FF4007201604FF4827141600021816036
:101BC000C1600161C0E905121022C0E9072141622C
:101BD00081620A21C162FFF73DB900000030014077
:101BE0001000002010B5104886B00E490160472152
:101BF0000024C0E901144FF6FE71C0E903144461EA
:101C0000FFF7D7FC4FF48050009069460648FFF775
:101C1000FFFC049404A904480594FFF7A2FC06B055
:101C200010BD0000002C014068000020FEE7704756
:101C30000907090E002806DA00F00F0000F1E02085
:101C400080F8141D704700F1E02080F80014704700
:101C5000012070472DE9F0471D4690460E46044688
:101C6000FEF794FB07465FEA08004FF000084FF4C8
:101C7000005A4FF0010926D034E0681C23D025B16A
:101C8000FEF784FBC01BA8421DD92068416821F0E3
:101C9000E00141602068016821F040010160A06A14
:101CA000504509D12068016821F400510160206885
:101CB000016841F40051016084F8519084F850802B
:101CC0000320BDE8F0872068806836EA0000D4D1A0
:101CD0000DE0681C06D0002DD7D0FEF757FBC01BC7
:101CE000A842D2D82068806836EA0000F1D00020EF
:101CF000E7E710B5FEF750FBBDE81040FFF72DBC3D
:101D000030B58FB00120009000040024CDE901041B
:101D10000225CDE907504FF4E01009906846FEF720
:101D20007DFD0F20CDE90A056802CDE90C400221B6
:101D30000AA80E94FEF7D0FBFEF712FD4FF47A715D
:101D4000B0FBF1F0FFF7F5FB0420FFF7E5FB002205
:101D50001146501EFEF78EFB0FB030BD0D480168D6
:101D600041F00101016041680B4A11404160016886
:101D70000A4A11400160016821F480210160416834
:101D800021F4FE0141604FF41F0181600449C0034A
:101D900008607047001002400000FFF8FFFFF6FEE9
:101DA00008ED00E0F0B50268144B154C154D4FF0EE
:101DB0008047984205D0B84203D0A04201D0A84243
:101DC00003D122F070064A683243984205D0B842E7
:101DD00003D0A04201D0A84203D122F44074CA68C3
:101DE000224302608A68C2620A688262984201D114
:101DF0000969016301214161F0BD0000002C01402F
:101E0000000400400008004010B5846842EA032244
:101E100024F47F440A432243826010BD826822F08A
:101E200070020A4342F007018160704710B5036AEF
:101E3000046A24F001040462846924F0F00444EA92
:101E4000021423F00A020A438461026210BD10B535
:101E5000036A23F0100303628369046A23F4704366
:101E600043EA023224F0A00343EA011182610162D5
:101E700010BDFEE702E008C8121F08C1002AFAD10F
:101E800070477047002001E001C1121F002AFBD1FA
:101E9000704700008CB0FEF787FAFFF731FFFFF7BD
:101EA00015FEFFF783FEFFF79DFE684600F044F83D
:101EB0002C2269461C48FEF735F91B491A4894390B
:101EC000012481611949022202C020F8084B40F820
:101ED000041C028041600821018140F2B11141617E
:101EE0000721017641768476FF2181777821C177B9
:101EF0000A2181830C48FFF720FD0B48FFF735FCD2
:101F0000C82801D10A4804700748FFF7A0FD094D11
:101F10004FF400544FF4FA7621462846FEF72CFA87
:101F20003046FEF728F9F7E7A4000020000C014036
:101F3000040000200010014000B58BB040F2B11148
:101F4000089107218DF824108DF8251001218DF8B6
:101F50002610FF218DF82A1064218DF82B100821FE
:101F6000ADF828102C226946FEF7DCF80BB000BD56
:101F7000000000000102030401020304060708092F
:101F8000A01F00080000002010000000741E0008C0
:101F9000B01F00081000002040050000841E00084B
:101FA00000A24A0400000000000000000000000041
:04000005080000ED02
:00000001FF
